:020000040000FA
:020000000528D1
:06000A0086018801831647
:10001000031386018801831250201120652040209F
:100020000C284D3086006220493086006220433023
:10003000860062205230860062204F3086006220A7
:100040004330860062204F30860062204E308600AA
:1000500062205430860062205230860062204F3089
:10006000860062204C30860062204130860062208B
:100070004430860062204F308600622052300800F3
:10008000433086006220453086006220533086006F
:1000900062204130860062205230860062200800D3
:1000A0000610013086005C200C3086005C203C305D
:1000B00086005C20081408008814692069208810D4
:1000C0006920080008145C2008000814C03086006D
:1000D0005C20FF30B100FF30B000B00B6D28B10BD9
:0400E0006B28080081
:00000001FF
