:020000040000FA
:100000000128831603130514061086108801831235
:1000100088010510061086148C01FF308C000C300E
:10002000B200392034082E208800262001308600B6
:10003000262035082E208800023086002620112830
:10004000B20A643032020319B2010800FA308C009F
:100050008C0B28280800FF308C00080082073F34F2
:1000600006345B344F3466346D347D3407347F346A
:100070006734B208031D3C280A30320203184428B2
:1000800041283208B50008000A30B202B40A0A302A
:0C0090003402031D3C28B401B30A3C28D4
:00000001FF
